{
  "contractName": "BSCToken",
  "abi": [
    {
      "inputs": [
        {
          "internalType": "address",
          "name": "initialOwner",
          "type": "address"
        }
      ],
      "stateMutability": "nonpayable",
      "type": "constructor"
    },
    {
      "inputs": [
        {
          "internalType": "address",
          "name": "spender",
          "type": "address"
        },
        {
          "internalType": "uint256",
          "name": "allowance",
          "type": "uint256"
        },
        {
          "internalType": "uint256",
          "name": "needed",
          "type": "uint256"
        }
      ],
      "name": "ERC20InsufficientAllowance",
      "type": "error"
    },
    {
      "inputs": [
        {
          "internalType": "address",
          "name": "sender",
          "type": "address"
        },
        {
          "internalType": "uint256",
          "name": "balance",
          "type": "uint256"
        },
        {
          "internalType": "uint256",
          "name": "needed",
          "type": "uint256"
        }
      ],
      "name": "ERC20InsufficientBalance",
      "type": "error"
    },
    {
      "inputs": [
        {
          "internalType": "address",
          "name": "approver",
          "type": "address"
        }
      ],
      "name": "ERC20InvalidApprover",
      "type": "error"
    },
    {
      "inputs": [
        {
          "internalType": "address",
          "name": "receiver",
          "type": "address"
        }
      ],
      "name": "ERC20InvalidReceiver",
      "type": "error"
    },
    {
      "inputs": [
        {
          "internalType": "address",
          "name": "sender",
          "type": "address"
        }
      ],
      "name": "ERC20InvalidSender",
      "type": "error"
    },
    {
      "inputs": [
        {
          "internalType": "address",
          "name": "spender",
          "type": "address"
        }
      ],
      "name": "ERC20InvalidSpender",
      "type": "error"
    },
    {
      "inputs": [
        {
          "internalType": "address",
          "name": "owner",
          "type": "address"
        }
      ],
      "name": "OwnableInvalidOwner",
      "type": "error"
    },
    {
      "inputs": [
        {
          "internalType": "address",
          "name": "account",
          "type": "address"
        }
      ],
      "name": "OwnableUnauthorizedAccount",
      "type": "error"
    },
    {
      "anonymous": false,
      "inputs": [
        {
          "indexed": true,
          "internalType": "address",
          "name": "owner",
          "type": "address"
        },
        {
          "indexed": true,
          "internalType": "address",
          "name": "spender",
          "type": "address"
        },
        {
          "indexed": false,
          "internalType": "uint256",
          "name": "value",
          "type": "uint256"
        }
      ],
      "name": "Approval",
      "type": "event"
    },
    {
      "anonymous": false,
      "inputs": [
        {
          "indexed": true,
          "internalType": "address",
          "name": "previousOwner",
          "type": "address"
        },
        {
          "indexed": true,
          "internalType": "address",
          "name": "newOwner",
          "type": "address"
        }
      ],
      "name": "OwnershipTransferred",
      "type": "event"
    },
    {
      "anonymous": false,
      "inputs": [
        {
          "indexed": true,
          "internalType": "address",
          "name": "from",
          "type": "address"
        },
        {
          "indexed": true,
          "internalType": "address",
          "name": "to",
          "type": "address"
        },
        {
          "indexed": false,
          "internalType": "uint256",
          "name": "value",
          "type": "uint256"
        }
      ],
      "name": "Transfer",
      "type": "event"
    },
    {
      "inputs": [
        {
          "internalType": "address",
          "name": "owner",
          "type": "address"
        },
        {
          "internalType": "address",
          "name": "spender",
          "type": "address"
        }
      ],
      "name": "allowance",
      "outputs": [
        {
          "internalType": "uint256",
          "name": "",
          "type": "uint256"
        }
      ],
      "stateMutability": "view",
      "type": "function",
      "constant": true
    },
    {
      "inputs": [
        {
          "internalType": "address",
          "name": "spender",
          "type": "address"
        },
        {
          "internalType": "uint256",
          "name": "value",
          "type": "uint256"
        }
      ],
      "name": "approve",
      "outputs": [
        {
          "internalType": "bool",
          "name": "",
          "type": "bool"
        }
      ],
      "stateMutability": "nonpayable",
      "type": "function"
    },
    {
      "inputs": [
        {
          "internalType": "address",
          "name": "account",
          "type": "address"
        }
      ],
      "name": "balanceOf",
      "outputs": [
        {
          "internalType": "uint256",
          "name": "",
          "type": "uint256"
        }
      ],
      "stateMutability": "view",
      "type": "function",
      "constant": true
    },
    {
      "inputs": [
        {
          "internalType": "uint256",
          "name": "totalTokens",
          "type": "uint256"
        }
      ],
      "name": "calculateMonthlyWithdrawal",
      "outputs": [
        {
          "internalType": "uint256",
          "name": "",
          "type": "uint256"
        }
      ],
      "stateMutability": "view",
      "type": "function",
      "constant": true
    },
    {
      "inputs": [
        {
          "internalType": "address",
          "name": "recipient",
          "type": "address"
        }
      ],
      "name": "claimAirdrop",
      "outputs": [
        {
          "internalType": "bool",
          "name": "",
          "type": "bool"
        }
      ],
      "stateMutability": "payable",
      "type": "function",
      "payable": true
    },
    {
      "inputs": [],
      "name": "decimals",
      "outputs": [
        {
          "internalType": "uint8",
          "name": "",
          "type": "uint8"
        }
      ],
      "stateMutability": "view",
      "type": "function",
      "constant": true
    },
    {
      "inputs": [],
      "name": "getAirdropLimit",
      "outputs": [
        {
          "internalType": "uint256",
          "name": "",
          "type": "uint256"
        }
      ],
      "stateMutability": "view",
      "type": "function",
      "constant": true
    },
    {
      "inputs": [],
      "name": "isLockTimeEnded",
      "outputs": [
        {
          "internalType": "bool",
          "name": "",
          "type": "bool"
        }
      ],
      "stateMutability": "view",
      "type": "function",
      "constant": true
    },
    {
      "inputs": [],
      "name": "monthlyWithdrawalPercentage",
      "outputs": [
        {
          "internalType": "uint256",
          "name": "",
          "type": "uint256"
        }
      ],
      "stateMutability": "view",
      "type": "function",
      "constant": true
    },
    {
      "inputs": [],
      "name": "name",
      "outputs": [
        {
          "internalType": "string",
          "name": "",
          "type": "string"
        }
      ],
      "stateMutability": "view",
      "type": "function",
      "constant": true
    },
    {
      "inputs": [],
      "name": "owner",
      "outputs": [
        {
          "internalType": "address",
          "name": "",
          "type": "address"
        }
      ],
      "stateMutability": "view",
      "type": "function",
      "constant": true
    },
    {
      "inputs": [],
      "name": "renounceOwnership",
      "outputs": [],
      "stateMutability": "nonpayable",
      "type": "function"
    },
    {
      "inputs": [],
      "name": "symbol",
      "outputs": [
        {
          "internalType": "string",
          "name": "",
          "type": "string"
        }
      ],
      "stateMutability": "view",
      "type": "function",
      "constant": true
    },
    {
      "inputs": [],
      "name": "totalSupply",
      "outputs": [
        {
          "internalType": "uint256",
          "name": "",
          "type": "uint256"
        }
      ],
      "stateMutability": "view",
      "type": "function",
      "constant": true
    },
    {
      "inputs": [
        {
          "internalType": "address",
          "name": "from",
          "type": "address"
        },
        {
          "internalType": "address",
          "name": "to",
          "type": "address"
        },
        {
          "internalType": "uint256",
          "name": "value",
          "type": "uint256"
        }
      ],
      "name": "transferFrom",
      "outputs": [
        {
          "internalType": "bool",
          "name": "",
          "type": "bool"
        }
      ],
      "stateMutability": "nonpayable",
      "type": "function"
    },
    {
      "inputs": [
        {
          "internalType": "address",
          "name": "newOwner",
          "type": "address"
        }
      ],
      "name": "transferOwnership",
      "outputs": [],
      "stateMutability": "nonpayable",
      "type": "function"
    },
    {
      "inputs": [
        {
          "internalType": "uint256",
          "name": "",
          "type": "uint256"
        }
      ],
      "name": "unlockDates",
      "outputs": [
        {
          "internalType": "uint256",
          "name": "",
          "type": "uint256"
        }
      ],
      "stateMutability": "view",
      "type": "function",
      "constant": true
    },
    {
      "inputs": [
        {
          "internalType": "address",
          "name": "_to",
          "type": "address"
        }
      ],
      "name": "requestAirdrop",
      "outputs": [],
      "stateMutability": "nonpayable",
      "type": "function"
    },
    {
      "inputs": [
        {
          "internalType": "address",
          "name": "recipient",
          "type": "address"
        },
        {
          "internalType": "uint256",
          "name": "amount",
          "type": "uint256"
        }
      ],
      "name": "transfer",
      "outputs": [
        {
          "internalType": "bool",
          "name": "",
          "type": "bool"
        }
      ],
      "stateMutability": "nonpayable",
      "type": "function"
    }
  ],
  "bytecode": "0x6080604052600a600b5534801562000015575f80fd5b50604051620028df380380620028df83398181016040528101906200003b91906200076e565b630107ac00426200004d9190620007d4565b6a7c13bc4b2c133c56000000826040518060400160405280600881526020017f425343546f6b656e0000000000000000000000000000000000000000000000008152506040518060400160405280600481526020017f42534354000000000000000000000000000000000000000000000000000000008152508160039081620000d7919062000a69565b508060049081620000e9919062000a69565b5050505f73ffffffffffffffffffffffffffffffffffffffff168173ffffffffffffffffffffffffffffffffffffffff16036200015f575f6040517f1e4fbdf700000000000000000000000000000000000000000000000000000000815260040162000156919062000b5e565b60405180910390fd5b62000170816200032b60201b60201c565b508060088190555050600a67ffffffffffffffff81111562000197576200019662000818565b5b604051908082528060200260200182016040528015620001c65781602001602082028036833780820191505090505b50600a9080519060200190620001de9291906200069c565b505f5b600a81101562000242578062278d00620001fc919062000b79565b82620002099190620007d4565b600a828154811062000220576200021f62000bc3565b5b905f5260205f2001819055508080620002399062000bf0565b915050620001e1565b50505f6b033b2e3c9fd0803ce800000090505f6064600f8362000266919062000b79565b62000272919062000c69565b9050620002863082620003ee60201b60201c565b5f606460078462000298919062000b79565b620002a4919062000c69565b9050620002b83082620003ee60201b60201c565b620002ca3082620003ee60201b60201c565b620002dc3082620003ee60201b60201c565b620002ee3082620003ee60201b60201c565b5f606460398562000300919062000b79565b6200030c919062000c69565b9050620003208582620003ee60201b60201c565b505050505062000d07565b5f60055f9054906101000a900473ffffffffffffffffffffffffffffffffffffffff1690508160055f6101000a81548173ffffffffffffffffffffffffffffffffffffffff021916908373ffffffffffffffffffffffffffffffffffffffff1602179055508173ffffffffffffffffffffffffffffffffffffffff168173ffffffffffffffffffffffffffffffffffffffff167f8be0079c531659141344cd1fd0a4f28419497f9722a3daafe3b4186f6b6457e060405160405180910390a35050565b5f73ffffffffffffffffffffffffffffffffffffffff168273ffffffffffffffffffffffffffffffffffffffff160362000461575f6040517fec442f0500000000000000000000000000000000000000000000000000000000815260040162000458919062000b5e565b60405180910390fd5b620004745f83836200047860201b60201c565b5050565b5f73ffffffffffffffffffffffffffffffffffffffff168373ffffffffffffffffffffffffffffffffffffffff1603620004cc578060025f828254620004bf9190620007d4565b925050819055506200059d565b5f805f8573ffffffffffffffffffffffffffffffffffffffff1673ffffffffffffffffffffffffffffffffffffffff1681526020019081526020015f205490508181101562000558578381836040517fe450d38c0000000000000000000000000000000000000000000000000000000081526004016200054f9392919062000cb1565b60405180910390fd5b8181035f808673ffffffffffffffffffffffffffffffffffffffff1673ffffffffffffffffffffffffffffffffffffffff1681526020019081526020015f2081905550505b5f73ffffffffffffffffffffffffffffffffffffffff168273ffffffffffffffffffffffffffffffffffffffff1603620005e6578060025f828254039250508190555062000630565b805f808473ffffffffffffffffffffffffffffffffffffffff1673ffffffffffffffffffffffffffffffffffffffff1681526020019081526020015f205f82825401925050819055505b8173ffffffffffffffffffffffffffffffffffffffff168373ffffffffffffffffffffffffffffffffffffffff167fddf252ad1be2c89b69c2b068fc378daa952ba7f163c4a11628f55a4df523b3ef836040516200068f919062000cec565b60405180910390a3505050565b828054828255905f5260205f20908101928215620006d9579160200282015b82811115620006d8578251825591602001919060010190620006bb565b5b509050620006e89190620006ec565b5090565b5b8082111562000705575f815f905550600101620006ed565b5090565b5f80fd5b5f73ffffffffffffffffffffffffffffffffffffffff82169050919050565b5f62000738826200070d565b9050919050565b6200074a816200072c565b811462000755575f80fd5b50565b5f8151905062000768816200073f565b92915050565b5f6020828403121562000786576200078562000709565b5b5f620007958482850162000758565b91505092915050565b5f819050919050565b7f4e487b71000000000000000000000000000000000000000000000000000000005f52601160045260245ffd5b5f620007e0826200079e565b9150620007ed836200079e565b9250828201905080821115620008085762000807620007a7565b5b92915050565b5f81519050919050565b7f4e487b71000000000000000000000000000000000000000000000000000000005f52604160045260245ffd5b7f4e487b71000000000000000000000000000000000000000000000000000000005f52602260045260245ffd5b5f60028204905060018216806200088a57607f821691505b602082108103620008a0576200089f62000845565b5b50919050565b5f819050815f5260205f209050919050565b5f6020601f8301049050919050565b5f82821b905092915050565b5f60088302620009047fffffffffffffffffffffffffffffffffffffffffffffffffffffffffffffffff82620008c7565b620009108683620008c7565b95508019841693508086168417925050509392505050565b5f819050919050565b5f620009516200094b62000945846200079e565b62000928565b6200079e565b9050919050565b5f819050919050565b6200096c8362000931565b620009846200097b8262000958565b848454620008d3565b825550505050565b5f90565b6200099a6200098c565b620009a781848462000961565b505050565b5b81811015620009ce57620009c25f8262000990565b600181019050620009ad565b5050565b601f82111562000a1d57620009e781620008a6565b620009f284620008b8565b8101602085101562000a02578190505b62000a1a62000a1185620008b8565b830182620009ac565b50505b505050565b5f82821c905092915050565b5f62000a3f5f198460080262000a22565b1980831691505092915050565b5f62000a59838362000a2e565b9150826002028217905092915050565b62000a74826200080e565b67ffffffffffffffff81111562000a905762000a8f62000818565b5b62000a9c825462000872565b62000aa9828285620009d2565b5f60209050601f83116001811462000adf575f841562000aca578287015190505b62000ad6858262000a4c565b86555062000b45565b601f19841662000aef86620008a6565b5f5b8281101562000b185784890151825560018201915060208501945060208101905062000af1565b8683101562000b38578489015162000b34601f89168262000a2e565b8355505b6001600288020188555050505b505050505050565b62000b58816200072c565b82525050565b5f60208201905062000b735f83018462000b4d565b92915050565b5f62000b85826200079e565b915062000b92836200079e565b925082820262000ba2816200079e565b9150828204841483151762000bbc5762000bbb620007a7565b5b5092915050565b7f4e487b71000000000000000000000000000000000000000000000000000000005f52603260045260245ffd5b5f62000bfc826200079e565b91507fffffffffffffffffffffffffffffffffffffffffffffffffffffffffffffffff820362000c315762000c30620007a7565b5b600182019050919050565b7f4e487b71000000000000000000000000000000000000000000000000000000005f52601260045260245ffd5b5f62000c75826200079e565b915062000c82836200079e565b92508262000c955762000c9462000c3c565b5b828204905092915050565b62000cab816200079e565b82525050565b5f60608201905062000cc65f83018662000b4d565b62000cd5602083018562000ca0565b62000ce4604083018462000ca0565b949350505050565b5f60208201905062000d015f83018462000ca0565b92915050565b611bca8062000d155f395ff3fe608060405260043610610113575f3560e01c806370a082311161009f578063ab8cceae11610063578063ab8cceae146103af578063c599401f146103d7578063dd62ed3e14610401578063e00868bc1461043d578063f2fde38b1461047957610113565b806370a08231146102cd578063715018a6146103095780638da5cb5b1461031f57806395d89b4114610349578063a9059cbb1461037357610113565b806323b872dd116100e657806323b872dd146101d157806327dd941e1461020d5780632b7a04d014610249578063313ce5671461027357806365f8c6c51461029d57610113565b806306fdde0314610117578063095ea7b31461014157806311a9233e1461017d57806318160ddd146101a7575b5f80fd5b348015610122575f80fd5b5061012b6104a1565b6040516101389190611493565b60405180910390f35b34801561014c575f80fd5b5061016760048036038101906101629190611544565b610531565b604051610174919061159c565b60405180910390f35b348015610188575f80fd5b50610191610553565b60405161019e919061159c565b60405180910390f35b3480156101b2575f80fd5b506101bb610589565b6040516101c891906115c4565b60405180910390f35b3480156101dc575f80fd5b506101f760048036038101906101f291906115dd565b610592565b604051610204919061159c565b60405180910390f35b348015610218575f80fd5b50610233600480360381019061022e919061162d565b6105c0565b60405161024091906115c4565b60405180910390f35b348015610254575f80fd5b5061025d6105e0565b60405161026a91906115c4565b60405180910390f35b34801561027e575f80fd5b506102876105e9565b6040516102949190611673565b60405180910390f35b6102b760048036038101906102b2919061168c565b6105f1565b6040516102c4919061159c565b60405180910390f35b3480156102d8575f80fd5b506102f360048036038101906102ee919061168c565b610706565b60405161030091906115c4565b60405180910390f35b348015610314575f80fd5b5061031d61074b565b005b34801561032a575f80fd5b5061033361075e565b60405161034091906116c6565b60405180910390f35b348015610354575f80fd5b5061035d610786565b60405161036a9190611493565b60405180910390f35b34801561037e575f80fd5b5061039960048036038101906103949190611544565b610816565b6040516103a6919061159c565b60405180910390f35b3480156103ba575f80fd5b506103d560048036038101906103d0919061168c565b61082c565b005b3480156103e2575f80fd5b506103eb61088b565b6040516103f891906115c4565b60405180910390f35b34801561040c575f80fd5b50610427600480360381019061042291906116df565b610891565b60405161043491906115c4565b60405180910390f35b348015610448575f80fd5b50610463600480360381019061045e919061162d565b610913565b60405161047091906115c4565b60405180910390f35b348015610484575f80fd5b5061049f600480360381019061049a919061168c565b610935565b005b6060600380546104b09061174a565b80601f01602080910402602001604051908101604052809291908181526020018280546104dc9061174a565b80156105275780601f106104fe57610100808354040283529160200191610527565b820191905f5260205f20905b81548152906001019060200180831161050a57829003601f168201915b5050505050905090565b5f8061053b6109b9565b90506105488185856109c0565b600191505092915050565b5f42600a6001600a8054905061056991906117a7565b8154811061057a576105796117da565b5b905f5260205f20015410905090565b5f600254905090565b5f8061059c6109b9565b90506105a98582856109d2565b6105b4858585610a64565b60019150509392505050565b600a81815481106105cf575f80fd5b905f5260205f20015f915090505481565b5f600854905090565b5f6012905090565b5f60085460095410610638576040517f08c379a000000000000000000000000000000000000000000000000000000000815260040161062f90611851565b60405180910390fd5b5f60065f8473ffffffffffffffffffffffffffffffffffffffff1673ffffffffffffffffffffffffffffffffffffffff1681526020019081526020015f2054146106b7576040517f08c379a00000000000000000000000000000000000000000000000000000000081526004016106ae906118b9565b60405180910390fd5b601960ff1660065f8473ffffffffffffffffffffffffffffffffffffffff1673ffffffffffffffffffffffffffffffffffffffff1681526020019081526020015f208190555060019050919050565b5f805f8373ffffffffffffffffffffffffffffffffffffffff1673ffffffffffffffffffffffffffffffffffffffff1681526020019081526020015f20549050919050565b610753610b54565b61075c5f610bdb565b565b5f60055f9054906101000a900473ffffffffffffffffffffffffffffffffffffffff16905090565b6060600480546107959061174a565b80601f01602080910402602001604051908101604052809291908181526020018280546107c19061174a565b801561080c5780601f106107e35761010080835404028352916020019161080c565b820191905f5260205f20905b8154815290600101906020018083116107ef57829003601f168201915b5050505050905090565b5f610822338484610c9e565b6001905092915050565b610835816105f1565b610874576040517f08c379a000000000000000000000000000000000000000000000000000000000815260040161086b9061196d565b60405180910390fd5b610888308268015af1d78b58c40000610a64565b50565b600b5481565b5f60015f8473ffffffffffffffffffffffffffffffffffffffff1673ffffffffffffffffffffffffffffffffffffffff1681526020019081526020015f205f8373ffffffffffffffffffffffffffffffffffffffff1673ffffffffffffffffffffffffffffffffffffffff1681526020019081526020015f2054905092915050565b5f6064600b5483610924919061198b565b61092e91906119f9565b9050919050565b61093d610b54565b5f73ffffffffffffffffffffffffffffffffffffffff168173ffffffffffffffffffffffffffffffffffffffff16036109ad575f6040517f1e4fbdf70000000000000000000000000000000000000000000000000000000081526004016109a491906116c6565b60405180910390fd5b6109b681610bdb565b50565b5f33905090565b6109cd8383836001610d1d565b505050565b5f6109dd8484610891565b90507fffffffffffffffffffffffffffffffffffffffffffffffffffffffffffffffff8114610a5e5781811015610a4f578281836040517ffb8f41b2000000000000000000000000000000000000000000000000000000008152600401610a4693929190611a29565b60405180910390fd5b610a5d84848484035f610d1d565b5b50505050565b5f73ffffffffffffffffffffffffffffffffffffffff168373ffffffffffffffffffffffffffffffffffffffff1603610ad4575f6040517f96c6fd1e000000000000000000000000000000000000000000000000000000008152600401610acb91906116c6565b60405180910390fd5b5f73ffffffffffffffffffffffffffffffffffffffff168273ffffffffffffffffffffffffffffffffffffffff1603610b44575f6040517fec442f05000000000000000000000000000000000000000000000000000000008152600401610b3b91906116c6565b60405180910390fd5b610b4f838383610eec565b505050565b610b5c6109b9565b73ffffffffffffffffffffffffffffffffffffffff16610b7a61075e565b73ffffffffffffffffffffffffffffffffffffffff1614610bd957610b9d6109b9565b6040517f118cdaa7000000000000000000000000000000000000000000000000000000008152600401610bd091906116c6565b60405180910390fd5b565b5f60055f9054906101000a900473ffffffffffffffffffffffffffffffffffffffff1690508160055f6101000a81548173ffffffffffffffffffffffffffffffffffffffff021916908373ffffffffffffffffffffffffffffffffffffffff1602179055508173ffffffffffffffffffffffffffffffffffffffff168173ffffffffffffffffffffffffffffffffffffffff167f8be0079c531659141344cd1fd0a4f28419497f9722a3daafe3b4186f6b6457e060405160405180910390a35050565b5f610ca884611105565b8015610cb95750610cb7610553565b155b15610d0c575f610cc88561114d565b90505f610cd3611193565b90505f610cdf82610913565b90505f610ced86858461119e565b90508485610cfb9190611a5e565b9450610d0788826112f3565b505050505b610d17848483610a64565b50505050565b5f73ffffffffffffffffffffffffffffffffffffffff168473ffffffffffffffffffffffffffffffffffffffff1603610d8d575f6040517fe602df05000000000000000000000000000000000000000000000000000000008152600401610d8491906116c6565b60405180910390fd5b5f73ffffffffffffffffffffffffffffffffffffffff168373ffffffffffffffffffffffffffffffffffffffff1603610dfd575f6040517f94280d62000000000000000000000000000000000000000000000000000000008152600401610df491906116c6565b60405180910390fd5b8160015f8673ffffffffffffffffffffffffffffffffffffffff1673ffffffffffffffffffffffffffffffffffffffff1681526020019081526020015f205f8573ffffffffffffffffffffffffffffffffffffffff1673ffffffffffffffffffffffffffffffffffffffff1681526020019081526020015f20819055508015610ee6578273ffffffffffffffffffffffffffffffffffffffff168473ffffffffffffffffffffffffffffffffffffffff167f8c5be1e5ebec7d5bd14f71427d1e84f3dd0314c0f7b2291e5b200ac8c7c3b92584604051610edd91906115c4565b60405180910390a35b50505050565b5f73ffffffffffffffffffffffffffffffffffffffff168373ffffffffffffffffffffffffffffffffffffffff1603610f3c578060025f828254610f309190611a5e565b9250508190555061100a565b5f805f8573ffffffffffffffffffffffffffffffffffffffff1673ffffffffffffffffffffffffffffffffffffffff1681526020019081526020015f2054905081811015610fc5578381836040517fe450d38c000000000000000000000000000000000000000000000000000000008152600401610fbc93929190611a29565b60405180910390fd5b8181035f808673ffffffffffffffffffffffffffffffffffffffff1673ffffffffffffffffffffffffffffffffffffffff1681526020019081526020015f2081905550505b5f73ffffffffffffffffffffffffffffffffffffffff168273ffffffffffffffffffffffffffffffffffffffff1603611051578060025f828254039250508190555061109b565b805f808473ffffffffffffffffffffffffffffffffffffffff1673ffffffffffffffffffffffffffffffffffffffff1681526020019081526020015f205f82825401925050819055505b8173ffffffffffffffffffffffffffffffffffffffff168373ffffffffffffffffffffffffffffffffffffffff167fddf252ad1be2c89b69c2b068fc378daa952ba7f163c4a11628f55a4df523b3ef836040516110f891906115c4565b60405180910390a3505050565b5f8060065f8473ffffffffffffffffffffffffffffffffffffffff1673ffffffffffffffffffffffffffffffffffffffff1681526020019081526020015f2054119050919050565b5f60075f8373ffffffffffffffffffffffffffffffffffffffff1673ffffffffffffffffffffffffffffffffffffffff1681526020019081526020015f20549050919050565b5f601960ff16905090565b5f805f5b600a805490508110156112165742600a82815481106111c4576111c36117da565b5b905f5260205f200154111561120357600a6001826111e291906117a7565b815481106111f3576111f26117da565b5b905f5260205f2001549150611216565b808061120e90611a91565b9150506111a2565b5f858561122391906117a7565b90506112646040518060400160405280601681526020017f4d4f4e54484c59204c494d495420414d4f554e543a20000000000000000000008152508661134a565b6112a36040518060400160405280601a81526020017f416c72656164792077697468647261776e20616d6f756e743a200000000000008152508761134a565b808711156112e6576040517f08c379a00000000000000000000000000000000000000000000000000000000081526004016112dd90611b48565b60405180910390fd5b8093505050509392505050565b8060075f8473ffffffffffffffffffffffffffffffffffffffff1673ffffffffffffffffffffffffffffffffffffffff1681526020019081526020015f205f82825461133f9190611a5e565b925050819055505050565b6113e28282604051602401611360929190611b66565b6040516020818303038152906040527fb60e72cc000000000000000000000000000000000000000000000000000000007bffffffffffffffffffffffffffffffffffffffffffffffffffffffff19166020820180517bffffffffffffffffffffffffffffffffffffffffffffffffffffffff83818316178352505050506113e6565b5050565b5f6a636f6e736f6c652e6c6f6790508151602083015f808383865afa5050505050565b5f81519050919050565b5f82825260208201905092915050565b5f5b83811015611440578082015181840152602081019050611425565b5f8484015250505050565b5f601f19601f8301169050919050565b5f61146582611409565b61146f8185611413565b935061147f818560208601611423565b6114888161144b565b840191505092915050565b5f6020820190508181035f8301526114ab818461145b565b905092915050565b5f80fd5b5f73ffffffffffffffffffffffffffffffffffffffff82169050919050565b5f6114e0826114b7565b9050919050565b6114f0816114d6565b81146114fa575f80fd5b50565b5f8135905061150b816114e7565b92915050565b5f819050919050565b61152381611511565b811461152d575f80fd5b50565b5f8135905061153e8161151a565b92915050565b5f806040838503121561155a576115596114b3565b5b5f611567858286016114fd565b925050602061157885828601611530565b9150509250929050565b5f8115159050919050565b61159681611582565b82525050565b5f6020820190506115af5f83018461158d565b92915050565b6115be81611511565b82525050565b5f6020820190506115d75f8301846115b5565b92915050565b5f805f606084860312156115f4576115f36114b3565b5b5f611601868287016114fd565b9350506020611612868287016114fd565b925050604061162386828701611530565b9150509250925092565b5f60208284031215611642576116416114b3565b5b5f61164f84828501611530565b91505092915050565b5f60ff82169050919050565b61166d81611658565b82525050565b5f6020820190506116865f830184611664565b92915050565b5f602082840312156116a1576116a06114b3565b5b5f6116ae848285016114fd565b91505092915050565b6116c0816114d6565b82525050565b5f6020820190506116d95f8301846116b7565b92915050565b5f80604083850312156116f5576116f46114b3565b5b5f611702858286016114fd565b9250506020611713858286016114fd565b9150509250929050565b7f4e487b71000000000000000000000000000000000000000000000000000000005f52602260045260245ffd5b5f600282049050600182168061176157607f821691505b6020821081036117745761177361171d565b5b50919050565b7f4e487b71000000000000000000000000000000000000000000000000000000005f52601160045260245ffd5b5f6117b182611511565b91506117bc83611511565b92508282039050818111156117d4576117d361177a565b5b92915050565b7f4e487b71000000000000000000000000000000000000000000000000000000005f52603260045260245ffd5b7f41697264726f702073616c65206973206f766572203a282100000000000000005f82015250565b5f61183b601883611413565b915061184682611807565b602082019050919050565b5f6020820190508181035f8301526118688161182f565b9050919050565b7f41697264726f7020616c726561647920636c61696d65642100000000000000005f82015250565b5f6118a3601883611413565b91506118ae8261186f565b602082019050919050565b5f6020820190508181035f8301526118d081611897565b9050919050565b7f41697264726f7020646973747269627574696f6e2068617320636f6e636c75645f8201527f65643b20796f752063616e6e6f7420636c61696d206d6f726520746f6b656e7360208201527f2e00000000000000000000000000000000000000000000000000000000000000604082015250565b5f611957604183611413565b9150611962826118d7565b606082019050919050565b5f6020820190508181035f8301526119848161194b565b9050919050565b5f61199582611511565b91506119a083611511565b92508282026119ae81611511565b915082820484148315176119c5576119c461177a565b5b5092915050565b7f4e487b71000000000000000000000000000000000000000000000000000000005f52601260045260245ffd5b5f611a0382611511565b9150611a0e83611511565b925082611a1e57611a1d6119cc565b5b828204905092915050565b5f606082019050611a3c5f8301866116b7565b611a4960208301856115b5565b611a5660408301846115b5565b949350505050565b5f611a6882611511565b9150611a7383611511565b9250828201905080821115611a8b57611a8a61177a565b5b92915050565b5f611a9b82611511565b91507fffffffffffffffffffffffffffffffffffffffffffffffffffffffffffffffff8203611acd57611acc61177a565b5b600182019050919050565b7f596f752063616e6e6f74207769746864726177206d6f7265207468616e2074685f8201527f65206c696d697420666f722074686973206d6f6e746821000000000000000000602082015250565b5f611b32603783611413565b9150611b3d82611ad8565b604082019050919050565b5f6020820190508181035f830152611b5f81611b26565b9050919050565b5f6040820190508181035f830152611b7e818561145b565b9050611b8d60208301846115b5565b939250505056fea26469706673582212207c1e8f59e1837ce23e061392ee1088e9645eb202847f88384f27d9412e63e4ec64736f6c63430008150033",
  "immutableReferences": {},
  "source": "// SPDX-License-Identifier: MIT\npragma solidity ^0.8.20;\n\nimport \"@openzeppelin/contracts/token/ERC20/ERC20.sol\";\nimport \"@openzeppelin/contracts/access/Ownable.sol\";\n\nimport \"./Airdrop.sol\";\nimport \"./TokenLock.sol\";\n\n\n/**\n * @title BSCToken\n * @dev ERC-20 token with Airdrop and ICO functionalities.\n */\ncontract BSCToken is ERC20, Ownable, Airdrop, TokenLock {\n\n    /**\n     * @dev Constructor to initialize the BSCToken contract.\n     * @param initialOwner The initial owner's address.\n     */\n    constructor(address initialOwner) \n    ERC20(\"BSCToken\", \"BSCT\") \n    Ownable(initialOwner) \n    // Airdrop tokens are 15% of total supply.\n    Airdrop((1000000000 * (10**18) * 0.15))\n    // In 200 days the tokens will be unlocked 10% every month.\n    TokenLock((block.timestamp + 200 days)){\n\n      // Initial supply 1 billion tokens (100%).\n      uint _totalSupply = 1000000000 * (10**18);\n\n      // Mint 150 million (15%) tokens for airdrop distribution.\n      uint256 airdropSupply = (_totalSupply * 15 ) / 100;\n      _mint(address(this), airdropSupply);\n\n      // Mint 280 million (28%) tokens for ICO across four phases (70 million each).\n      uint256 icoSupply = (_totalSupply * 7) / 100;\n      _mint(address(this), icoSupply);\n      _mint(address(this), icoSupply);\n      _mint(address(this), icoSupply);\n      _mint(address(this), icoSupply);\n\n      // Mint the remaining 570 million (57%) tokens for the initial owner.\n      uint256 supplyLeft = (_totalSupply * 57) / 100;\n      _mint(initialOwner, supplyLeft);\n    }\n\n    /**\n     * @dev Allow users to request airdrop tokens.\n     * @param _to The address to which airdrop tokens will be transferred.\n     */\n    function requestAirdrop(address _to) public {\n        // Check if the user is eligible to claim the airdrop.\n        require(claimAirdrop(_to), \"Airdrop distribution has concluded; you cannot claim more tokens.\");\n\n        // If eligible, transfer 25 tokens to the recipient.\n        _transfer(address(this), _to, 25 * (10**18));\n    }\n\n    function transfer(address recipient, uint256 amount) public override returns (bool) {\n      internalTransfer(msg.sender, recipient, amount);\n      return true;\n    }\n\n    function internalTransfer(address sender, address recipient, uint256 amount) internal {\n        uint totalWithdrawable = 0;\n        if(hasReceivedAirdrop(sender) && !isLockTimeEnded()){\n\n          // Get how much the airdrop reciepient recieved in total.\n          uint alreadyWithdrawnAmount = getTotalAirdropTransfer(sender);\n          \n          // Get how much is distributed to all patients base amount.\n          uint totalCoins = getAirdropDistributionAmount();\n\n          // Get how much is allowed to withdraw monthly.\n          uint monthlyLimitAmount = calculateMonthlyWithdrawal(totalCoins);\n          \n          // Get how much is user currently allowed to withdraw. (WHERE IS THE NORMAL COINS HE HAS?? ALLOWED TO SELL!!!)\n          uint totalWithdrawableNow = canWithdrawNow(amount, alreadyWithdrawnAmount, monthlyLimitAmount);\n          totalWithdrawable += totalWithdrawable;\n\n          // Update the balance for the airdrop recieve so user can be tracked. about how much he recieved this month.\n          updateTotalTransfers(sender, totalWithdrawableNow);\n\n        }\n        _transfer(sender, recipient, totalWithdrawable);\n    }\n\n}\n",
  "sourcePath": "D:\\ProgrammingLessons\\blockchain\\bsc-token\\contracts\\BSCToken.sol",
  "compiler": {
    "name": "solc",
    "version": "0.8.21+commit.d9974bed.Emscripten.clang"
  },
  "schemaVersion": "3.4.16",
  "updatedAt": "2023-12-11T18:52:05.321Z",
  "networkType": "ethereum",
  "devdoc": {
    "details": "ERC-20 token with Airdrop and ICO functionalities.",
    "errors": {
      "ERC20InsufficientAllowance(address,uint256,uint256)": [
        {
          "details": "Indicates a failure with the `spender`s `allowance`. Used in transfers.",
          "params": {
            "allowance": "Amount of tokens a `spender` is allowed to operate with.",
            "needed": "Minimum amount required to perform a transfer.",
            "spender": "Address that may be allowed to operate on tokens without being their owner."
          }
        }
      ],
      "ERC20InsufficientBalance(address,uint256,uint256)": [
        {
          "details": "Indicates an error related to the current `balance` of a `sender`. Used in transfers.",
          "params": {
            "balance": "Current balance for the interacting account.",
            "needed": "Minimum amount required to perform a transfer.",
            "sender": "Address whose tokens are being transferred."
          }
        }
      ],
      "ERC20InvalidApprover(address)": [
        {
          "details": "Indicates a failure with the `approver` of a token to be approved. Used in approvals.",
          "params": {
            "approver": "Address initiating an approval operation."
          }
        }
      ],
      "ERC20InvalidReceiver(address)": [
        {
          "details": "Indicates a failure with the token `receiver`. Used in transfers.",
          "params": {
            "receiver": "Address to which tokens are being transferred."
          }
        }
      ],
      "ERC20InvalidSender(address)": [
        {
          "details": "Indicates a failure with the token `sender`. Used in transfers.",
          "params": {
            "sender": "Address whose tokens are being transferred."
          }
        }
      ],
      "ERC20InvalidSpender(address)": [
        {
          "details": "Indicates a failure with the `spender` to be approved. Used in approvals.",
          "params": {
            "spender": "Address that may be allowed to operate on tokens without being their owner."
          }
        }
      ],
      "OwnableInvalidOwner(address)": [
        {
          "details": "The owner is not a valid owner account. (eg. `address(0)`)"
        }
      ],
      "OwnableUnauthorizedAccount(address)": [
        {
          "details": "The caller account is not authorized to perform an operation."
        }
      ]
    },
    "events": {
      "Approval(address,address,uint256)": {
        "details": "Emitted when the allowance of a `spender` for an `owner` is set by a call to {approve}. `value` is the new allowance."
      },
      "Transfer(address,address,uint256)": {
        "details": "Emitted when `value` tokens are moved from one account (`from`) to another (`to`). Note that `value` may be zero."
      }
    },
    "kind": "dev",
    "methods": {
      "allowance(address,address)": {
        "details": "See {IERC20-allowance}."
      },
      "approve(address,uint256)": {
        "details": "See {IERC20-approve}. NOTE: If `value` is the maximum `uint256`, the allowance is not updated on `transferFrom`. This is semantically equivalent to an infinite approval. Requirements: - `spender` cannot be the zero address."
      },
      "balanceOf(address)": {
        "details": "See {IERC20-balanceOf}."
      },
      "calculateMonthlyWithdrawal(uint256)": {
        "details": "Function to calculate the monthly withdrawal amount based on the total tokens.",
        "params": {
          "totalTokens": "Total tokens available for withdrawal."
        },
        "returns": {
          "_0": "Monthly withdrawal amount."
        }
      },
      "claimAirdrop(address)": {
        "details": "Function to check if a recipient can claim the airdrop and perform the claim.",
        "params": {
          "recipient": "Address of the recipient."
        },
        "returns": {
          "_0": "Whether the airdrop claim was successful."
        }
      },
      "constructor": {
        "details": "Constructor to initialize the BSCToken contract.",
        "params": {
          "initialOwner": "The initial owner's address."
        }
      },
      "decimals()": {
        "details": "Returns the number of decimals used to get its user representation. For example, if `decimals` equals `2`, a balance of `505` tokens should be displayed to a user as `5.05` (`505 / 10 ** 2`). Tokens usually opt for a value of 18, imitating the relationship between Ether and Wei. This is the default value returned by this function, unless it's overridden. NOTE: This information is only used for _display_ purposes: it in no way affects any of the arithmetic of the contract, including {IERC20-balanceOf} and {IERC20-transfer}."
      },
      "getAirdropLimit()": {
        "details": "Get the maximum allowed tokens for airdrop.",
        "returns": {
          "_0": "Maximum allowed tokens for airdrop."
        }
      },
      "isLockTimeEnded()": {
        "details": "Funtion to return how much the user allowed to withdraw now.",
        "returns": {
          "_0": "Boolean indicating lockTime is ended or not."
        }
      },
      "name()": {
        "details": "Returns the name of the token."
      },
      "owner()": {
        "details": "Returns the address of the current owner."
      },
      "renounceOwnership()": {
        "details": "Leaves the contract without owner. It will not be possible to call `onlyOwner` functions. Can only be called by the current owner. NOTE: Renouncing ownership will leave the contract without an owner, thereby disabling any functionality that is only available to the owner."
      },
      "requestAirdrop(address)": {
        "details": "Allow users to request airdrop tokens.",
        "params": {
          "_to": "The address to which airdrop tokens will be transferred."
        }
      },
      "symbol()": {
        "details": "Returns the symbol of the token, usually a shorter version of the name."
      },
      "totalSupply()": {
        "details": "See {IERC20-totalSupply}."
      },
      "transferFrom(address,address,uint256)": {
        "details": "See {IERC20-transferFrom}. Emits an {Approval} event indicating the updated allowance. This is not required by the EIP. See the note at the beginning of {ERC20}. NOTE: Does not update the allowance if the current allowance is the maximum `uint256`. Requirements: - `from` and `to` cannot be the zero address. - `from` must have a balance of at least `value`. - the caller must have allowance for ``from``'s tokens of at least `value`."
      },
      "transferOwnership(address)": {
        "details": "Transfers ownership of the contract to a new account (`newOwner`). Can only be called by the current owner."
      }
    },
    "title": "BSCToken",
    "version": 1
  },
  "userdoc": {
    "kind": "user",
    "methods": {},
    "version": 1
  }
}