{
  "contractName": "TokenLock",
  "abi": [
    {
      "inputs": [
        {
          "internalType": "uint256",
          "name": "_unlockDate",
          "type": "uint256"
        }
      ],
      "stateMutability": "nonpayable",
      "type": "constructor"
    },
    {
      "inputs": [],
      "name": "monthlyWithdrawalPercentage",
      "outputs": [
        {
          "internalType": "uint256",
          "name": "",
          "type": "uint256"
        }
      ],
      "stateMutability": "view",
      "type": "function"
    },
    {
      "inputs": [
        {
          "internalType": "uint256",
          "name": "",
          "type": "uint256"
        }
      ],
      "name": "unlockDates",
      "outputs": [
        {
          "internalType": "uint256",
          "name": "",
          "type": "uint256"
        }
      ],
      "stateMutability": "view",
      "type": "function"
    },
    {
      "inputs": [
        {
          "internalType": "uint256",
          "name": "totalTokens",
          "type": "uint256"
        }
      ],
      "name": "calculateMonthlyWithdrawal",
      "outputs": [
        {
          "internalType": "uint256",
          "name": "",
          "type": "uint256"
        }
      ],
      "stateMutability": "view",
      "type": "function"
    },
    {
      "inputs": [],
      "name": "isLockTimeEnded",
      "outputs": [
        {
          "internalType": "bool",
          "name": "",
          "type": "bool"
        }
      ],
      "stateMutability": "view",
      "type": "function"
    }
  ],
  "bytecode": "0x6080604052600a600155348015610014575f80fd5b5060405161068d38038061068d83398181016040528101906100369190610190565b600a67ffffffffffffffff811115610051576100506101bb565b5b60405190808252806020026020018201604052801561007f5781602001602082028036833780820191505090505b505f90805190602001906100949291906100f3565b505f5b600a8110156100ec578062278d006100af9190610215565b826100ba9190610256565b5f82815481106100cd576100cc610289565b5b905f5260205f20018190555080806100e4906102b6565b915050610097565b50506102fd565b828054828255905f5260205f2090810192821561012d579160200282015b8281111561012c578251825591602001919060010190610111565b5b50905061013a919061013e565b5090565b5b80821115610155575f815f90555060010161013f565b5090565b5f80fd5b5f819050919050565b61016f8161015d565b8114610179575f80fd5b50565b5f8151905061018a81610166565b92915050565b5f602082840312156101a5576101a4610159565b5b5f6101b28482850161017c565b91505092915050565b7f4e487b71000000000000000000000000000000000000000000000000000000005f52604160045260245ffd5b7f4e487b71000000000000000000000000000000000000000000000000000000005f52601160045260245ffd5b5f61021f8261015d565b915061022a8361015d565b92508282026102388161015d565b9150828204841483151761024f5761024e6101e8565b5b5092915050565b5f6102608261015d565b915061026b8361015d565b9250828201905080821115610283576102826101e8565b5b92915050565b7f4e487b71000000000000000000000000000000000000000000000000000000005f52603260045260245ffd5b5f6102c08261015d565b91507fffffffffffffffffffffffffffffffffffffffffffffffffffffffffffffffff82036102f2576102f16101e8565b5b600182019050919050565b6103838061030a5f395ff3fe608060405234801561000f575f80fd5b506004361061004a575f3560e01c806311a9233e1461004e57806327dd941e1461006c578063c599401f1461009c578063e00868bc146100ba575b5f80fd5b6100566100ea565b604051610063919061017f565b60405180910390f35b610086600480360381019061008191906101cf565b61011e565b6040516100939190610209565b60405180910390f35b6100a461013d565b6040516100b19190610209565b60405180910390f35b6100d460048036038101906100cf91906101cf565b610143565b6040516100e19190610209565b60405180910390f35b5f425f60015f805490506100fe919061024f565b8154811061010f5761010e610282565b5b905f5260205f20015410905090565b5f818154811061012c575f80fd5b905f5260205f20015f915090505481565b60015481565b5f60646001548361015491906102af565b61015e919061031d565b9050919050565b5f8115159050919050565b61017981610165565b82525050565b5f6020820190506101925f830184610170565b92915050565b5f80fd5b5f819050919050565b6101ae8161019c565b81146101b8575f80fd5b50565b5f813590506101c9816101a5565b92915050565b5f602082840312156101e4576101e3610198565b5b5f6101f1848285016101bb565b91505092915050565b6102038161019c565b82525050565b5f60208201905061021c5f8301846101fa565b92915050565b7f4e487b71000000000000000000000000000000000000000000000000000000005f52601160045260245ffd5b5f6102598261019c565b91506102648361019c565b925082820390508181111561027c5761027b610222565b5b92915050565b7f4e487b71000000000000000000000000000000000000000000000000000000005f52603260045260245ffd5b5f6102b98261019c565b91506102c48361019c565b92508282026102d28161019c565b915082820484148315176102e9576102e8610222565b5b5092915050565b7f4e487b71000000000000000000000000000000000000000000000000000000005f52601260045260245ffd5b5f6103278261019c565b91506103328361019c565b925082610342576103416102f0565b5b82820490509291505056fea264697066735822122091881415a0426b7bff69b64d4be4cc9e3ecabc45e1d30a12d14a0bb90fb1973a64736f6c63430008150033",
  "immutableReferences": {},
  "source": "// SPDX-License-Identifier: MIT\r\npragma solidity ^0.8.20;\r\n\r\n/**\r\n * @title TokenLock\r\n * @dev Simple contract to manage token locking functionality.\r\n */\r\n\r\nimport \"@ganache/console.log/console.sol\";\r\n\r\ncontract TokenLock {\r\n    // Timestamp when tokens will be unlocked\r\n    uint256[] public unlockDates;\r\n\r\n    // Monthly withdrawal percentage\r\n    uint256 public monthlyWithdrawalPercentage = 10;\r\n\r\n    /**\r\n     * @dev Constructor to set the unlock date.\r\n     * @param _unlockDate Timestamp when tokens should be unlocked.\r\n     */\r\n    constructor(uint256 _unlockDate) {\r\n        unlockDates = new uint256[](10);\r\n        for (uint i = 0; i < 10; i++) {\r\n            unlockDates[i] = _unlockDate + (30 days * i);\r\n        }\r\n    }\r\n\r\n    /**\r\n     * @dev Function to calculate the monthly withdrawal amount based on the total tokens.\r\n     * @param totalTokens Total tokens available for withdrawal.\r\n     * @return Monthly withdrawal amount.\r\n     */\r\n    function calculateMonthlyWithdrawal(uint256 totalTokens) public view returns (uint256) {\r\n        // Calculate monthly withdrawal amount (10% of total tokens)\r\n        return (totalTokens * monthlyWithdrawalPercentage) / 100;\r\n    }\r\n    \r\n    /**\r\n    * @dev Funtion to return how much the user allowed to withdraw now.\r\n    * @return Boolean indicating lockTime is ended or not.\r\n    */\r\n    function isLockTimeEnded() public view returns (bool) {\r\n        return unlockDates[unlockDates.length - 1] < block.timestamp;\r\n    }\r\n\r\n    /**\r\n     * @dev Funtion to return how much the user allowed to withdraw now.\r\n     * @param amountRequested Users withdrawal amount request.\r\n     * @param alreadyWithdrawnAmount User already withdrawn.\r\n     * @param monthlyLimitAmount Allowed to withdraw every month.\r\n     * @return Total withdrawal allowed now.\r\n     */ \r\n    function canWithdrawNow(uint amountRequested, uint alreadyWithdrawnAmount, uint monthlyLimitAmount) internal view returns(uint){\r\n        // need current timestamp.\r\n        uint latestTimestampPassed;\r\n        uint i;\r\n        // then on the array of unlockDates we need to check which one we are closer to.\r\n        for(i = 0; i < unlockDates.length; i++){\r\n            if(unlockDates[i] > block.timestamp){\r\n                // then the previous one was the one we are currently on +1\r\n                latestTimestampPassed = unlockDates[i - 1];\r\n                break;\r\n            }\r\n        }\r\n        // Check how much can we withdraw now.\r\n        uint withdrawableAmountNow = monthlyLimitAmount - alreadyWithdrawnAmount;\r\n\r\n        console.log(\"MONTHLY LIMIT AMOUNT: \", monthlyLimitAmount);\r\n        console.log(\"Already withdrawn amount: \", alreadyWithdrawnAmount);\r\n        // Check if withdrawableAmountNow is higher eqs amountRequested\r\n        require(amountRequested <= withdrawableAmountNow, \"You cannot withdraw more than the limit for this month!\");\r\n        \r\n        return withdrawableAmountNow;\r\n\r\n    }\r\n}",
  "sourcePath": "D:\\ProgrammingLessons\\blockchain\\bsc-token\\contracts\\TokenLock.sol",
  "compiler": {
    "name": "solc",
    "version": "0.8.21+commit.d9974bed.Emscripten.clang"
  },
  "schemaVersion": "3.4.16",
  "updatedAt": "2023-12-11T18:51:39.494Z",
  "devdoc": {
    "kind": "dev",
    "methods": {
      "calculateMonthlyWithdrawal(uint256)": {
        "details": "Function to calculate the monthly withdrawal amount based on the total tokens.",
        "params": {
          "totalTokens": "Total tokens available for withdrawal."
        },
        "returns": {
          "_0": "Monthly withdrawal amount."
        }
      },
      "constructor": {
        "details": "Constructor to set the unlock date.",
        "params": {
          "_unlockDate": "Timestamp when tokens should be unlocked."
        }
      },
      "isLockTimeEnded()": {
        "details": "Funtion to return how much the user allowed to withdraw now.",
        "returns": {
          "_0": "Boolean indicating lockTime is ended or not."
        }
      }
    },
    "version": 1
  },
  "userdoc": {
    "kind": "user",
    "methods": {},
    "version": 1
  }
}